:100000000C942A000C9447000C9447000C94470071
:100010000C9447000C9447000C9447000C945F0A22
:100020000C9447000C9447000C9470000C949700BB
:100030000C9447000C94EC000C9447000C9447007F
:100040000C94A7030C9447000C9447000C944700B1
:100050000C94470011241FBECFE5D8E0DEBFCDBF12
:1000600010E0A0E6B0E0E8E9F0E302C005900D92F0
:10007000A639B107D9F717E0A6E9B0E001C01D9293
:10008000A23DB107E1F70E94CB160C944A180C94DC
:10009000000083B7887F83BF83B7836083BF83B744
:1000A0008F7B83BF83B7877F83BF89B7816089BF19
:1000B00089B78D7F89BF83B78F7E83BF83B78F7DDD
:1000C00083BF089582BF08958CBF08959093B507AC
:1000D0008093B40708959093B5078093B40708956B
:1000E0001F920F920FB60F9211242F933F934F93AD
:1000F0005F936F937F938F939F93AF93BF93EF9390
:10010000FF93E091B407F091B5070995FF91EF9146
:10011000BF91AF919F918F917F916F915F914F911F
:100120003F912F910F900FBE0F901F9018951F9227
:100130000F920FB60F9211242F933F934F935F931B
:100140006F937F938F939F93AF93BF93EF93FF939F
:10015000E091B407F091B5070995FF91EF91BF9138
:10016000AF919F918F917F916F915F914F913F914F
:100170002F910F900FBE0F901F901895529886E800
:1001800080BD83E389B9549A539A08955D9BFECF4D
:100190008CB908958CB1089520E004C05D9BFECF1A
:1001A000ECB92F5FFC01E20FF11DE081EE23B1F706
:1001B0000895AC0120E08CB1FA01E20FF11D8083BB
:1001C000893011F02F5FF7CF0895579A08959093D3
:1001D000B7078093B60708951F920F920FB60F923C
:1001E00011242F933F934F935F936F937F938F933C
:1001F0009F93AF93BF93EF93FF93E091B607F09176
:10020000B7070995FF91EF91BF91AF919F918F91A2
:100210007F916F915F914F913F912F910F900FBE02
:100220000F901F9018958FB780688FBF08958FB774
:100230008F778FBF0895382F883008F07AC06130EB
:1002400029F1613038F0623009F43CC0633009F0C4
:1002500070C053C0413059F42AB381E090E002C02D
:10026000880F991F3A95E2F7282B2ABB60C04423D8
:1002700009F05FC02AB381E090E002C0880F991FA7
:100280003A95E2F7809582238ABB51C0413059F4F8
:1002900027B381E090E002C0880F991F3A95E2F7FA
:1002A000282B27BB44C0442309F043C027B381E077
:1002B00090E002C0880F991F3A95E2F7809582235B
:1002C00087BB35C0413059F424B381E090E002C0CF
:1002D000880F991F3A95E2F7282B24BB28C04423A6
:1002E00041F524B381E090E002C0880F991F3A9550
:1002F000E2F78095822384BB1AC0413059F421B3C0
:1003000081E090E002C0880F991F3A95E2F7282B10
:1003100021BB0DC0442369F421B381E090E002C009
:10032000880F991F3A95E2F78095822381BB81E07F
:10033000089580E00895982F862F81508E3F90F089
:10034000913049F0913028F0923039F0933051F4E7
:1003500006C06ABB05C067BB03C064BB01C061BB0C
:1003600081E0089580E00895382F883008F07AC041
:10037000613029F1613038F0623009F43CC06330FB
:1003800009F070C053C0413059F42BB381E090E0C4
:1003900002C0880F991F3A95E2F7282B2BBB60C04B
:1003A000442309F05FC02BB381E090E002C0880FC6
:1003B000991F3A95E2F7809582238BBB51C041305B
:1003C00059F428B381E090E002C0880F991F3A9554
:1003D000E2F7282B28BB44C0442309F043C028B3CC
:1003E00081E090E002C0880F991F3A95E2F780956E
:1003F000822388BB35C0413059F425B381E090E0B9
:1004000002C0880F991F3A95E2F7282B25BB28C018
:10041000442341F525B381E090E002C0880F991F85
:100420003A95E2F78095822385BB1AC0413059F492
:1004300022B381E090E002C0880F991F3A95E2F75D
:10044000282B22BB0DC0442369F422B381E090E045
:1004500002C0880F991F3A95E2F78095822382BBEC
:1004600081E0089580E00895813051F0813030F0CE
:10047000823041F0833049F080E008956BBB03C0C7
:1004800068BB01C065BB81E0089562BB81E008954F
:10049000282FFA018830D0F4613049F0613028F01B
:1004A000623039F0633091F406C089B305C086B379
:1004B00003C083B301C080B390E002C095958795D7
:1004C0002A95E2F78170808381E0089580E00895A5
:1004D000382F883058F56130E9F0613028F062300B
:1004E00071F0633019F516C02BB381E090E002C0C3
:1004F000880F991F3A95E2F728272BBB15C025B323
:1005000081E090E002C0880F991F3A95E2F7282712
:1005100025BB0AC022B381E090E002C0880F991F7A
:100520003A95E2F7282722BB81E0089580E00895FC
:100530000F931F93182F062F40E00E941B01812F5D
:10054000602F41E00E94B4011F910F910895603F18
:1005500011F06F30B1F5813091F0813028F08230A8
:10056000C9F0833071F521C0603F19F48AB3806F00
:1005700004C06F3031F58AB38F608ABB20C0603F02
:1005800019F487B3806F04C06F30D9F487B38F60DC
:1005900087BB15C0603F19F484B3806F04C06F300F
:1005A00081F484B38F6084BB0AC0603F19F481B3C7
:1005B000806F04C06F3029F481B38F6081BB81E00C
:1005C000089580E00895813069F0813028F082300C
:1005D00079F08330C1F412C08BB3607F8F70862BAB
:1005E0008BBB089588B3607F8F70862B88BB08957E
:1005F00085B3607F8F70862B85BB089582B3607F43
:100600008F70862B82BB0895813069F0813028F08D
:10061000823079F08330C1F412C08BB36F70807F69
:10062000862B8BBB089588B36F70807F862B88BB29
:10063000089585B36F70807F862B85BB089582B344
:100640006F70807F862B82BB0895982F853010F0C5
:1006500080E008956130B1F0613028F0623009F136
:10066000633069F52EC08BB32FE030E002C0220F5B
:10067000331F9A95E2F7209528232BBB8BB3842B4D
:100680008BBB1DC088B32FE030E002C0220F331FA8
:100690009A95E2F72095282328BB88B3842B88BB42
:1006A0000EC085B32FE030E002C0220F331F9A95B1
:1006B000E2F72095282325BB85B3842B85BB81E0F9
:1006C000089582B32FE030E002C0220F331F9A95C5
:1006D000E2F72095282322BB82B3842B82BB81E0E2
:1006E00008953E9A3F9886B1887F86B986B1876023
:1006F00086B93D98339A359880B78F7D80BF80B793
:100700008F7B80BF80B78F7780BF379A089597B16E
:10071000907E97B997B1887F892B87B9369A349B99
:10072000FECF24B135B1C901089597B1907E97B934
:1007300097B18770892B87B9369A089524B135B15E
:10074000C90108959093B9078093B80708951F923F
:100750000F920FB60F9211242F933F934F935F93F5
:100760006F937F938F939F93AF93BF93EF93FF9379
:10077000E091B807F091B9070995FF91EF91BF910A
:10078000AF919F918F917F916F915F914F913F9129
:100790002F910F900FBE0F901F90189584E062E08C
:1007A00040E00E94B40183E062E040E00E94B401B6
:1007B000089584E062E040E00E94B40183E062E0DA
:1007C00041E00E94B401089584E062E041E00E94AB
:1007D000B40183E062E040E00E94B401089584E047
:1007E00062E041E00E941B0183E062E041E00E9480
:1007F0001B0108959F92AF92BF92CF92DF92EF922A
:10080000FF920F931F93DF93CF930F92CDB7DEB775
:1008100099249A94EE24FF245E010894A11CB11C33
:1008200094E0C92ECE0C8C2D61E040E00E94B40112
:100830008701000F111F000F111F0B571F4FDD24E1
:100840008D2D61E0A5010E9448028981882359F419
:10085000F801908005C08D2D61E0A5010E9448023D
:1008600089818823C1F3D3940F5F1F4FF4E0DF1613
:1008700039F78C2D61E041E00E94B4010894E11C3D
:10088000F11C84E0E816F10459F6892D0F90CF9100
:10089000DF911F910F91FF90EF90DF90CF90BF906D
:1008A000AF909F90089581E060EF0E94A70281E0E1
:1008B00060EF0E94A70281E06FE00E94040381E0E4
:1008C00060EF0E94E3020895EF92FF921F93182FAA
:1008D00081E060E041E00E94B401412F50E0407FA0
:1008E00050705595479583E060E00E94250382E0B3
:1008F00060E041E00E94B40180E4E82E8FE1F82E30
:10090000C7010197F1F782E060E040E00E94B40186
:10091000C7010197F1F781E060E041E00E94B40176
:100920001F70110F110F110F83E060E0412F0E9423
:10093000250382E060E041E00E94B401C701019715
:10094000F1F782E060E040E00E94B401C701019746
:10095000F1F71F91FF90EF900895AF92BF92CF9261
:10096000DF92EF92FF920F931F93DF93CF93CDB758
:10097000DEB72C970FB6F894DEBF0FBECDBF6B016C
:100980007C016115710581059105E1F110E05E01C1
:100990000894A11CB11CC501810F911D9C878B87F8
:1009A000C701B6012AE030E040E050E00E9409189B
:1009B000EB85FC856083C701B6012AE030E040E0AA
:1009C00050E00E940918C901DA016C017D011F5F26
:1009D000C114D104E104F104F1F6012F0150E02E1D
:1009E000FF24E7FCF094EA0CFB1C09C0F7018081AE
:1009F000805D0E94640401500894E108F10807FF3B
:100A0000F5CF03C080E30E9464042C960FB6F894DF
:100A1000DEBF0FBECDBFCF91DF911F910F91FF9031
:100A2000EF90DF90CF90BF90AF9008951F93CF933A
:100A3000DF93EC0110E003C00E9464041F5FFE011D
:100A4000E10FF11D80818823B9F7DF91CF911F91CC
:100A50000895EF92FF921F93182F81E060E040E02D
:100A60000E94B401412F50E0407F5070559547954A
:100A700083E060E00E94250382E060E041E00E94A4
:100A8000B40120E4E22E2FE1F22EC7010197F1F725
:100A900082E060E040E00E94B401C7010197F1F7F5
:100AA00081E060E040E00E94B4011F70110F110F5F
:100AB000110F83E060E0412F0E94250382E060E097
:100AC00041E00E94B401C7010197F1F782E060E0C4
:100AD00040E00E94B401C7010197F1F71F91FF9018
:100AE000EF9008950F931F9383E060E041E00E9430
:100AF0001B0184E060E041E00E941B0185E060E0B2
:100B000041E00E941B0186E060E041E00E941B0181
:100B100081E060E041E00E941B0182E060E041E092
:100B20000E941B018CE291E020E931E0F90131974C
:100B3000F1F70197D9F781E060E040E00E94B4014D
:100B400083E060E040E10E94250382E060E041E054
:100B50000E94B40100E41FE1C8010197F1F782E0AF
:100B600060E040E00E94B401C8010197F1F788E21B
:100B70000E942905C8010197F1F78EE00E9429051E
:100B8000C8010197F1F781E00E942905C80101978A
:100B9000F1F786E00E942905C8010197F1F71F913E
:100BA0000F9108950F931F93182F80E062E040E0AB
:100BB0000E94B40181E062E040E00E94B40180E064
:100BC000612F0E94340282E062E041E00E94B401A1
:100BD00000E41FE1C8010197F1F782E062E040E024
:100BE0000E94B401C8010197F1F782E062E041E0A0
:100BF0000E94B401C8010197F1F71F910F91089568
:100C0000813039F4603168F4862F80580E94D20513
:100C10000895823031F4603120F4862F80540E9490
:100C2000D20508950F931F93182F80E062E041E0F2
:100C30000E94B40181E062E040E00E94B40180E0E3
:100C4000612F0E94340282E062E041E00E94B40120
:100C500000E41FE1C8010197F1F782E062E040E0A3
:100C60000E94B401C8010197F1F782E062E041E01F
:100C70000E94B401C8010197F1F71F910F910895E7
:100C8000AF92BF92CF92DF92EF92FF920F931F939A
:100C9000DF93CF93CDB7DEB72C970FB6F894DEBFB6
:100CA0000FBECDBF6B017C016115710581059105FA
:100CB000E1F110E05E010894A11CB11CC501810F97
:100CC000911D9C878B87C701B6012AE030E040E088
:100CD00050E00E940918EB85FC856083C701B601CE
:100CE0002AE030E040E050E00E940918C901DA0132
:100CF0006C017D011F5FC114D104E104F104F1F620
:100D0000012F0150E02EFF24E7FCF094EA0CFB1CBD
:100D100009C0F7018081805D0E941206015008948D
:100D2000E108F10807FFF5CF03C080E30E94120637
:100D30002C960FB6F894DEBF0FBECDBFCF91DF91DA
:100D40001F910F91FF90EF90DF90CF90BF90AF90E9
:100D500008951F93CF93DF93EC0110E003C00E942E
:100D600012061F5FFE01E10FF11D80818823B9F794
:100D7000DF91CF911F9108950F931F9380E06FEF44
:100D80000E949B0180E062E041E00E941B0181E043
:100D900062E041E00E941B0182E062E041E00E94CB
:100DA0001B018CE291E020E931E0F9013197F1F784
:100DB0000197D9F788E30E94D20500E41FE1C8013A
:100DC0000197F1F78EE00E94D205C8010197F1F773
:100DD00081E00E94D205C8010197F1F786E00E94E8
:100DE000D205C8010197F1F71F910F910895EF9275
:100DF000FF920F931F93FC010580F681E02DE680A2
:100E0000F7808701045F1F4FC8010E945E0987ECCD
:100E100090E0B8010E94000920E0E0919600F09176
:100E20009700D70156969C918689981708F021E083
:100E3000822F1F910F91FF90EF900895FF920F93D3
:100E40001F93CF93DF9399E0F92E21C0F894E0919E
:100E5000CC00F091CD0006811781C8010C960E944C
:100E60005E097894E8012296CE010E945E09F8019D
:100E7000968980919800891710F4909398009F9D0F
:100E8000C001112481569F4FBE010E94000980912C
:100E9000C7008823D9F60E94FE0D20919900309159
:100EA0009A00821B930B90939C0080939B0089E097
:100EB000F82E53C0019690939E0080939D00215080
:100EC000304030939C0020939B00892B09F03EC05A
:100ED0002091C3003091C4008091C5009091C6005C
:100EE0009093C4008093C3003093C6002093C50044
:100EF0002DC00580F681E02DC681D78120919D000F
:100F000030919E008A819B812817390730F1F8942F
:100F10008E010E5F1F4FC8010E945E098C899D895A
:100F2000892B21F0CE010C960E945E0978949E894F
:100F300080919800891710F4909398009F9DC001AC
:100F4000112481569F4FB8010E940009E091C3000F
:100F5000F091C4008081882361F620919B0030913C
:100F60009C0080919D0090919E002115310509F013
:100F7000A1CF90939A00809399009091980029E0D6
:100F800006C0992319F41092980032C09150929F94
:100F9000D0011124A156BF4F8C91882391F39093D7
:100FA00098001196ED91FC9112970280F381E02D4B
:100FB0001296FC93EE931197CD010396E817F9076B
:100FC00031F48281938112969C938E93119711969E
:100FD000ED91FC9112970680F781E02DF093970038
:100FE000E093960020813181CF016789F90109954D
:100FF000DF91CF911F910F91FF9008950F931F9351
:10100000CF93DF93EB0100919D0010919E00080F9C
:10101000191F809196009091970002960E945E0998
:10102000E0919600F09197001383028380919D00D8
:1010300090919E00BF016E5F7F4F0817190728F43B
:101040008091C5009091C60004C08091C30090912A
:10105000C4000E942909209749F060919600709180
:101060009700645F7F4FCE010E942909DF91CF91E5
:101070001F910F910895AF92BF92CF92DF92EF929E
:10108000FF920F931F93CF93DF936C01B62EA42E84
:101090008AE190E00E94C508EC01009711F48FEFFF
:1010A00059C08091960090919700892B21F5D0939B
:1010B0009700C09396008FE990E00E94EC0888EAC0
:1010C00090E00E94EC0821EBE22E20E0F22EC70116
:1010D0000E94EC080AEB10E0C8010E94EC0887ECC3
:1010E00090E00E94EC08F092C400E092C3001093DC
:1010F000C6000093C500EB2CBB2011F0EE24E39456
:10110000198E188EEE8AAF8AFE01C192D1928F019C
:10111000CF010E94FC08CE010C960E94FC08D987E2
:10112000C887DB8BCA8B8AE090E08E1991099D8776
:101130008C879E8980919800891710F4909398006D
:1011400089E0989FC001112481569F4FB8010E94E9
:10115000000981E0DF91CF911F910F91FF90EF90F7
:10116000DF90CF90BF90AF90089508951092D10076
:101170001092D000089520E436E08091D000909144
:10118000D100281B390BC90108950F931F93CF93EA
:10119000DF938C010E94F80D8091D0009091D100D6
:1011A0009801280F391F46E02034340758F482177D
:1011B000930740F4EC01CE52DF4F3093D1002093DF
:1011C000D00002C0C0E0D0E00E945110CE01DF91FB
:1011D000CF911F910F910895FC019C012D5F3F4F0E
:1011E000328321838FEF9FEF94838383368325831C
:1011F0003087278310820895FC0111861086089598
:10120000CF93DF93AC01DB01EC0129813A81F90135
:101210008281938113969C938E93129789819A81F0
:1012200015969C938E9314970280F381E02D75831D
:101230006483E9017B836A83FA017283618319966F
:101240005C934E93189780818F5F8083DF91CF915D
:101250000895CF93DF939C01EB01488159818FEF73
:101260004F3F580721F4F901A781B08510C0D9017B
:10127000139604C012960D90BC91A02D1296ED917C
:10128000FC911397808191814817590798F712961E
:10129000ED91FC911397FB83EA83D583C483BD83CF
:1012A000AC831396DC93CE93129739872887F90184
:1012B00080818F5F8083DF91CF910895CF93DF93FB
:1012C000DC011296ED91FC91139714968D919C91EF
:1012D0001597958384831496CD91DC911597FB83A4
:1012E000EA831896ED91FC911997818192818A1772
:1012F0009B0711F4D283C18319961C921E921897F2
:10130000808181508083DF91CF910895FC0191E12C
:10131000908322E2229383E38293629372931292E8
:1013200080E88293129282E0829383E0829384E049
:10133000829385E0829386E0829387E0829388E0BF
:10134000829389E0829380E18293929382E18293F7
:1013500083E1829384E1829385E1829386E18293A3
:1013600087E1829388E1829389E1829380E282938C
:1013700081E28293229383E282934293529386E2A4
:10138000829387E2829388E2829389E2829380E368
:10139000829381E382933197CF0108951BBC89EF3B
:1013A0008ABD8BE08EBD89B7806189BFA09112078D
:1013B000B0911307CD91CDBFDD91DEBFFF91EF91CD
:1013C000DF91CF91BF91AF919F918F917F916F915D
:1013D0005F914F913F912F911F910F91FF90EF904F
:1013E000DF90CF90BF90AF909F908F907F906F9045
:1013F0005F904F903F902F901F900F900FBE0F90D7
:10140000089581E0089508950F920FB6F8940F9211
:101410001F9211242F923F924F925F926F927F9270
:101420008F929F92AF92BF92CF92DF92EF92FF92F4
:101430000F931F932F933F934F935F936F937F93DC
:101440008F939F93AF93BF93CF93DF93EF93FF93CC
:10145000A0911207B09113070DB60D920EB60D9222
:101460000E94590F0E94120EA0911207B09113070B
:10147000CD91CDBFDD91DEBFFF91EF91DF91CF9197
:10148000BF91AF919F918F917F916F915F914F919C
:101490003F912F911F910F91FF90EF90DF90CF9090
:1014A000BF90AF909F908F907F906F905F904F9084
:1014B0003F902F901F900F900FBE0F9008950E94A5
:1014C000040A18950F920FB6F8940F921F921124E8
:1014D0002F923F924F925F926F927F928F929F9244
:1014E000AF92BF92CF92DF92EF92FF920F931F9332
:1014F0002F933F934F935F936F937F938F939F931C
:10150000AF93BF93CF93DF93EF93FF93A091120715
:10151000B09113070DB60D920EB60D920E94120EE9
:10152000A0911207B0911307CD91CDBFDD91DEBF21
:10153000FF91EF91DF91CF91BF91AF919F918F91EB
:101540007F916F915F914F913F912F911F910F91DB
:10155000FF90EF90DF90CF90BF90AF909F908F90D3
:101560007F906F905F904F903F902F901F900F90C3
:101570000FBE0F900895FC010FB6F8940F92828D64
:101580000F900FBE0895FC01828D0895FC01828D9D
:1015900090E0882309F491E0892F0895FC01928D51
:1015A00020E0838D981709F421E0822F08950F938E
:1015B0001F938C01FC01808191810E94B508C801B4
:1015C0000E94B5081F910F9108950F931F93CF9319
:1015D000DF93EC01FB018A018A8D882381F1488128
:1015E000598141155105A9F08C8D2E813F81280F1D
:1015F000311D3F832E838A819B812817390710F084
:101600005F834E834C8D6E817F81CF0150E00E94BD
:101610002B188A8D81508A8F8D8D8F3F69F4888534
:10162000882361F0CE0108960E941A0F882331F0BA
:1016300081E0F801808303C08F5F8D8F81E0DF91AF
:10164000CF911F910F9108950F931F93CF93DF9325
:10165000EC010FB6F8940F928C010F5E1F4F0DC076
:101660008989882369F0C8010E941A0F882311F024
:101670000E94990E8E8D81508E8F8E8D181684F358
:101680008FEF8E8F0F900FBE0FB6F8940F928E01D2
:10169000085F1F4F0DC08885882369F0C8010E942C
:1016A0001A0F882311F00E94990E8D8D81508D8F15
:1016B0008D8D181684F38FEF8D8F0F900FBEDF91F5
:1016C000CF911F910F9108957F928F929F92AF9229
:1016D000BF92CF92DF92EF92FF920F931F93DF930F
:1016E000CF9300D000D00F92CDB7DEB78C01962EED
:1016F000872E5D834C83722E91E1C92ED12CC00EB2
:10170000D11E20E07E010894E11CF11C84E0A82E8B
:10171000B12CAC0EBD1E01C021E00FB6F8940F92A3
:10172000F801828D882309F448C0E680F780408163
:10173000518141155105B1F0848D9701280F311D5C
:1017400037832683828193812817390710F05783C6
:101750004683F801448D66817781892D982D50E06C
:101760000E942B187720C1F4F801828D8150828F5E
:1017700080819181892B29F40E949D0EF801938329
:101780008283F80180858823A1F0C80108960E9411
:101790001A0F813071F40BC0F801F782E68281895B
:1017A000882339F0C6010E941A0F882311F00E9485
:1017B000620A0F900FBE81E059C08C819D81892BF8
:1017C00019F40F900FBE51C0222319F4C7010E94D3
:1017D000540E0F900FBE0E94F80D0FB6F8940F92A2
:1017E000F801858D8F3F09F4158EF801868D8F3FA6
:1017F00009F4168E0F900FBEC701B5010E945F0E4F
:10180000882371F50FB6F8940F92F801828D0F902E
:101810000FBE8823F9F4F80180819181892B51F45E
:101820000FB6F8940F92F801828193810E94D00E36
:101830000F900FBE6C817D81C6010E943410C801DB
:101840000E94240B0E945110882309F065CF0E944A
:10185000620A62CFC8010E94240B0E9451105CCF23
:10186000C8010E94240B0E94511080E00F900F903D
:101870000F900F900F90CF91DF911F910F91FF90DC
:10188000EF90DF90CF90BF90AF909F908F907F9020
:101890000895CF93DF93EC01842F4C8D442359F4AA
:1018A00088819981892BD9F58A819B810E94A30E19
:1018B0001B821A8234C08823B1F48C819D8150E050
:1018C0000E942B188C8D2C813D81280F311D3D836A
:1018D0002C838A819B812817390708F18881998197
:1018E0009D838C831CC08E819F8150E00E942B18A9
:1018F0008C8D90E044275527481B590B8E819F8182
:10190000840F951F9F838E832881398182179307C7
:1019100030F48A819B81840F951F9F838E838A8DEB
:101920008F5F8A8FDF91CF9108950F931F93CF938D
:10193000DF93EC018A019A8D8B8D981710F080E06F
:1019400017C0CE01422F0E94490C8E8D8F3F69F443
:101950008989882361F0CE0141960E941A0F88235D
:1019600031F081E0F801808303C08F5F8E8F81E0CA
:10197000DF91CF911F910F9108957F928F929F9247
:10198000AF92BF92CF92DF92EF92FF920F931F938D
:10199000DF93CF9300D000D00F92CDB7DEB78C018C
:1019A0006B015D834C83722E48E0E42EF12CE80E2F
:1019B000F91E20E05E010894A11CB11C34E0832EC6
:1019C000912C8C0E9D1E01C021E00FB6F8940F9251
:1019D000F801928D838D9817A8F4C801B601472DA0
:1019E0000E94490CF8018189882341F0C801419681
:1019F0000E941A0F813011F40E94620A0F900FBEEC
:101A000081E04CC08C819D81892B19F40F900FBE11
:101A100044C0222319F4C5010E94540E0F900FBE3A
:101A20000E94F80D0FB6F8940F92F801858D8F3F44
:101A300009F4158EF801868D8F3F09F4168E0F90EC
:101A40000FBEC501B4010E945F0E882309F50FB6D1
:101A5000F8940F92F801928D0F900FBEF801838DCC
:101A6000981781F46C817D81C7010E943410C801F0
:101A70000E94240B0E945110882309F0A5CF0E94D8
:101A8000620AA2CFC8010E94240B0E9451109CCF71
:101A9000C8010E94240B0E94511080E00F900F900B
:101AA0000F900F900F90CF91DF911F910F91FF90AA
:101AB000EF90DF90CF90BF90AF909F908F907F90EE
:101AC0000895CF93DF938FE190E00E94C508EC0169
:101AD0000097F9F01B821A82198218821D821C82DB
:101AE0001F821E821A8E81E08B8F1C8E8FEF8D8F4E
:101AF0008E8FCE0108960E94EC08CE0141960E947E
:101B0000EC08CE0160E070E040E050E020E00E9490
:101B1000BD0CCE01DF91CF910895AF92BF92CF92CD
:101B2000DF92EF92FF920F931F93CF93DF93B82E24
:101B3000A62E882309F442C08FE190E00E94C508D8
:101B4000EC010097D9F1EB2CFF24CA2CDD24CE9CAC
:101B50008001CF9C100DDE9C100D1124C801019650
:101B60000E94C5089C0199838883009721F1080F82
:101B7000191F1B830A831A8E9D838C830894E108A6
:101B8000F108EC9CC001ED9C900DFC9C900D112483
:101B9000280F391F3F832E83BB8EAC8E8FEF8D8F26
:101BA0008E8FCE0108960E94EC08CE0141960E94CD
:101BB000EC089E0105C0CE010E94B50820E030E08F
:101BC000C901DF91CF911F910F91FF90EF90DF90AE
:101BD000CF90BF90AF9008951F93162F60E00E94A2
:101BE0008D0DFC01009709F0128FCF011F91089510
:101BF000809119078F5F8093190708950FB6F894A5
:101C00000F9220911707309118070F900FBEC9014E
:101C100008952091170730911807C9010895809100
:101C20001B07089580911907882351F081E0809364
:101C3000150708958091140781508093140701C0FF
:101C400099E0E0911407E99FF0011124E05EF84F5C
:101C50008081882379F39091140789E0989FD001BF
:101C60001124A05EB84F1196ED91FC91129702805D
:101C7000F381E02D1296FC93EE931197CD0103961C
:101C8000E817F90731F48281938112969C938E9321
:101C900011971196ED91FC911297868197819093FF
:101CA0001307809312070895FC0180911607808323
:101CB0008091170790911807928381830895FC0102
:101CC000DB010FB6F8940F92909116078081981758
:101CD00049F02091170730911807818192812817C8
:101CE000390718F5809117079091180721813281E3
:101CF0004D915C911197821B930B84179507A8F463
:101D00008091170790911807281B390B240F351F56
:101D10002D933C93809116078083809117079091B3
:101D200018079283818380E001C081E00F900FBE8D
:101D3000089581E08093150708952091120730914E
:101D40001307C90108950F931F93CF93DF93EC01FD
:101D5000009709F19E8989A19817E9F08E010E5F1D
:101D60001F4FC8010E945E0929A12E8B8AE090E0D6
:101D7000821B91099D878C8780911407821710F42C
:101D80002093140789E0289FC0011124805E984F9A
:101D9000B8010E940009DF91CF911F910F91089522
:101DA0000F931F93CF93DF93EC01E0911207F09113
:101DB00013073E8986893817C0F5E0911207F09124
:101DC000130726898AE090E0821B91099D878C8702
:101DD00089E0389FC0011124805E984F2A853B8599
:101DE00028173907E1F48E010E5F1F4FC8010E94CA
:101DF0005E09E0911207F091130796899E8B8091FE
:101E00001407891710F49093140789E0989FC00174
:101E10001124805E984FB8010E94000906C0E0912D
:101E20001207F091130786898E8BDF91CF911F9156
:101E30000F9108950F931F93CF93DF93FC010580BB
:101E4000F681E02D06811781E8012C96CE010E94D3
:101E50005E09809119078823A9F4E8012296CE0132
:101E60000E945E09D80156969C91809114078917AB
:101E700010F49093140789E0989FC0011124805EAC
:101E8000984F02C080E997E0BE010E940009E091EE
:101E90001207F091130720E0D80156969C9186898D
:101EA000981708F021E0822FDF91CF911F910F91B9
:101EB0000895FF920F931F93CF93DF93809119079B
:101EC000882309F08FC08091170790911807019619
:101ED0009093180780931707809117079091180720
:101EE000892B79F520918C0730918D0780918E0791
:101EF00090918F0790938D0780938C0730938F0775
:101F000020938E07809116078F5F80931607E091CC
:101F10008C07F0918D078081882319F48FEF9FEF54
:101F20000CC0E0918C07F0918D070580F681E02DC3
:101F30000680F781E02D82819381909366008093E3
:101F400065002091170730911807809165009091E6
:101F500066002817390708F44AC089E0F82EE09196
:101F60008C07F0918D078081882339F48FEF9FEFE4
:101F700090936600809365003AC0E0918C07F091E1
:101F80008D070580F681E02DC681D7812A813B81AE
:101F900080911707909118078217930728F43093C0
:101FA00066002093650023C08E010E5F1F4FC8019D
:101FB0000E945E098C899D89892B21F0CE010C96A7
:101FC0000E945E099E8980911407891710F49093EE
:101FD00014079F9DC0011124805E984FB8010E9494
:101FE0000009BDCF80911A078F5F80931A07DF9198
:101FF000CF911F910F91FF900895CF93DF93EC0144
:10200000E0911207F0911307938382838091170761
:1020100090911807C817D90768F480918E0790919E
:102020008F0760911207709113076E5F7F4F0E94B8
:10203000290917C080918C0790918D076091120734
:10204000709113076E5F7F4F0E9429098091650090
:1020500090916600C817D90720F4D0936600C0930A
:102060006500DF91CF9108950F931F938B016091CD
:10207000120770911307645F7F4F0E9429098091B6
:1020800012079091130702960E945E09809117072C
:1020900090911807800F911F0E94FD0F1F910F91C3
:1020A0000895CF92DF92FF920F931F93DF93CF9308
:1020B0000F92CDB7DEB70FB6F8940F928091190743
:1020C00081508093190780911907882309F058C01F
:1020D00080911B07882309F453C0198299E0F92ED7
:1020E0002DC0E0919507F0919607C680D780C60174
:1020F0000C960E945E0986010E5F1F4FC8010E9468
:102100005E09D60156969C9180911407891710F4A8
:10211000909314079F9DC0011124805E984FB801D1
:102120000E940009E0911207F0911307D60156961C
:102130009C918689981710F0B1E0B983809190073F
:10214000882379F680911A07882341F40CC00E94F5
:10215000590F80911A07815080931A0780911A07AE
:102160008823A9F707C0E981E13021F080911507A4
:10217000813031F4109215070E94620A81E001C09B
:1021800080E00F900FBE0F90CF91DF911F910F91C4
:10219000FF90DF90CF9008950F931F93CF93DF931D
:1021A000EC010097C9F0809119078F5F80931907A0
:1021B000009117071091180780911207909113074B
:1021C00002960E945E09CE01800F911F0E94FD0FB2
:1021D0000E945110882311F40E94620ADF91CF916E
:1021E0001F910F910895CF93DF93FC01EB01809134
:1021F00019078F5F8093190720813181C20FD31F88
:1022000080911707909118078217930728F4C21737
:10221000D30728F020E00CC0C217D30740F080910C
:1022200017079091180720E08C179D0708F421E00C
:10223000D183C083222351F080911207909113071C
:1022400002960E945E09CE010E94FD0F0E9451106D
:10225000882311F40E94620ADF91CF910895EF92D2
:10226000FF920F931F93CF93DF938C010FB6F894D7
:102270000F9280911207909113070817190719F40C
:1022800000E010E003C00115110529F4C091120708
:10229000D091130701C0E80122E0E22EF12CEC0EF0
:1022A000FD1EC7010E945E098C899D89892B21F042
:1022B000CE010C960E945E0989E997E0B7010E9461
:1022C000000980911D078F5F80931D0780911E0775
:1022D0008F5F80931E070F900FBE80911C0788238D
:1022E00021F0012B11F40E94620ADF91CF911F911E
:1022F0000F91FF90EF900895F89410921C070E94A0
:10230000030A08950F931F9380911D078823E1F31B
:10231000809119078F5F80931907109199070E9488
:102320005110112389F30FB6F8940F92E0919E0794
:10233000F0919F0706811781C80102960E945E09ED
:1023400080911B07815080931B0780911D0781504E
:1023500080931D070F900FBEF8018789908D0E9412
:10236000B508C8010E94B508CFCF2F923F924F9277
:102370005F927F928F929F92AF92BF92CF92DF92A5
:10238000EF92FF920F931F93CF93DF931C014B01AA
:102390005A012901702EE60182E290E00E94C508F0
:1023A0006C01009771F0209721F4C5010E94C508C7
:1023B000EC01F601D08FC78B209729F4C6010E944B
:1023C000B5088FEFC0C0CE0165EA70E0A5010E949C
:1023D00034180894A108B108F601C789D08DCA0D38
:1023E000DB1DC6014996B40148E050E00E943B184D
:1023F000F60110A2072DF9E0F71508F409E0F6013F
:10240000068B01A342E0A42EB12CAC0CBD1CC5016F
:102410000E94FC08C6010C960E94FC08F601D186B9
:10242000C0868AE090E0801B910995878487D38AD3
:10243000C28ACE01B101A2010E948609F6019183F0
:102440008083E114F10419F0F701D182C0820FB644
:10245000F8940F9280911B078F5F80931B078091E8
:10246000120790911307892B79F5D0921307C09228
:10247000120780911B078130B1F5C0E2D7E0CE0191
:102480000E94EC082996F7E0CA37DF07C1F73AE760
:10249000E32E37E0F32EC7010E94EC0803E817E0B3
:1024A000C8010E94EC0880E997E00E94EC0889E9E5
:1024B00097E00E94EC08F0928D07E0928C07109351
:1024C0008F0700938E070FC080911C07882359F453
:1024D000E0911207F09113078689781620F0D092C8
:1024E0001307C0921207F601968980911F0789177A
:1024F00010F490931F0780911E078F5F80931E0733
:10250000F601968980911407891710F490931407A7
:10251000F601868929E0829FC0011124805E984FD0
:10252000B5010E9400090F900FBE80911C078823FF
:1025300049F0E0911207F09113078689871510F48E
:102540000E94620A81E0DF91CF911F910F91FF906D
:10255000EF90DF90CF90BF90AF909F908F907F9043
:102560005F904F903F902F900895AF92BF92CF927F
:10257000DF92EF92FF920F9382E891E160E670E0C4
:1025800044E650E020E030E000E0EE24FF24CC24DC
:10259000DD24AA24BB240E94B511813049F4F894AB
:1025A00080931C0710921807109217070E94CE09FB
:1025B0000F91FF90EF90DF90CF90BF90AF90089574
:1025C0001F9385E082BF8091A207843019F0882391
:1025D00009F047C08091C4079091C50764EA77E08D
:1025E00040E050E020E00E94640B1091A40711230A
:1025F000B1F48091A3071816C4F48150843160F5BA
:1026000080E063E040E00E94B4018091A307843140
:1026100019F58FEF8093A3071092A4071DC0113006
:10262000D9F48091A307823034F480E063E041E084
:102630000E94B40111C08250833170F480E063E0E5
:1026400040E00E94B4018091A307843129F48FEF08
:102650008093A3071093A4078091A3078F5F8093B3
:10266000A3071F9108958091C2079091C30760E06E
:1026700070E040E050E020E00E94BD0C0895EF9231
:10268000FF920F931F9394E0E92E82E0F82E03E06F
:102690008091A207823009F450C0833030F488233F
:1026A00051F0813009F07BC01EC08330A1F184302D
:1026B00009F075C054C08091BC079091BD0769EACC
:1026C00077E040E050E020E00E94640B1091A90701
:1026D000113009F064C080E062E040E00E94B40183
:1026E0001093A2075CC08091BA079091BB0768EA7B
:1026F00077E040E050E020E00E94640B8091A80762
:10270000853609F04CC00093A20780E062E040E00B
:102710000E94B40144C08091CC079091CD0767EA34
:1027200077E040E050E020E00E94640B8091A70732
:102730008A30A9F5F092A20732C08091D00790911B
:10274000D10766EA77E040E050E020E00E94640BA9
:102750008091A607813019F5E092A20720C08091F0
:10276000C6079091C70765EA77E040E050E020E0B7
:102770000E94640B8091A507813089F480E062E0BB
:1027800040E00E94B4011092A2071092A907109293
:10279000A8071092A7071092A6071092A5078AE033
:1027A00090E00E94CC1074CFFF920F931F9325E608
:1027B000F22E04E614E18091A207813081F5809128
:1027C000BE079091BF0762E870E040E050E020E073
:1027D0000E94640B90918200953619F1892F8353E2
:1027E000823358F480E062E041E00E94B4018091BD
:1027F000820081508093820014C09150923388F4FB
:1028000080E062E040E00E94B4018091820081504B
:1028100080938200882329F40093820002C0F09202
:1028200082008091A207823071F58091C00790915B
:10283000C10763E870E040E050E020E00E94640BD4
:1028400090918300913011F1892F8B508A3048F498
:1028500080E062E041E00E94B401809183008150F9
:1028600013C091509A3090F480E062E040E00E9402
:10287000B40180918300815080938300882331F4D8
:102880001093830003C081E08093830085E090E093
:102890000E94CC1090CFEF92FF920F931F93DF9383
:1028A000CF930F92CDB7DEB781E089837E01089484
:1028B000E11CF11C01E08091A207843089F51091A0
:1028C000B007112381F4009384008091C407909194
:1028D000C50764E870E040E050E020E00E94BD0CD5
:1028E0000093B0071DC01130D9F41092840080917C
:1028F000C4079091C50764E870E040E050E020E034
:102900000E94BD0C8091C6079091C707B70140E0B7
:1029100050E020E00E94BD0C1092B007109384009C
:1029200084E690E00E94CC10C6CF8091A20783304D
:1029300091F58091C8079091C90761EB77E040E07D
:1029400050E020E00E94640B8091B107813019F5BE
:102950008091B2078A3030F483E062E041E00E9467
:10296000B40114C083E062E040E00E94B4018091B1
:10297000CC079091CD0762EB77E040E050E020E09B
:102980000E94BD0C1092B2071092B1078091B2075D
:102990008F5F8093B20784E690E00E94CC10C5CF91
:1029A000CF92DF92EF92FF920F931F93DF93CF931B
:1029B00000D0CDB7DEB784E1898381E08A8342E02D
:1029C000E42EF12CEC0EFD1E0FEF1FEF6E010894AC
:1029D000C11CD11C8091A207823009F055C00E9411
:1029E00095038091C2079091C30760E070E045E0D5
:1029F00050E020E00E94640B813009F045C00E9445
:102A00009E03A0E0B0E0BC01CD0128E833E140E046
:102A100050E00E94D6173AE096958795779567958E
:102A20003A95D1F770937C0060937B008091CE073C
:102A30009091CF076BE770E040E050E020E00E940B
:102A4000BD0C80917B0090917C002091C00730915B
:102A5000C1078B3F910518F0C901B6010CC0C9012F
:102A6000B70140E050E020E00E94BD0C8091D0070B
:102A70009091D107B70140E050E020E00E94BD0CEA
:102A800010937C0000937B0084E690E00E94CC10C1
:102A9000A1CF0F931F93CF93DF93CFEFDFEF02E030
:102AA0008091A207833009F052C081E00E94950313
:102AB0008091C2079091C30760E070E045E050E06C
:102AC00020E00E94640B182F813009F040C00E9462
:102AD0009E039093AB078093AA07A0E0B0E0BC01EF
:102AE000CD0128E833E140E050E00E94D6175AE0DB
:102AF00096958795779567955A95D1F770937F004E
:102B000060937E0068327105E0F410937D0080913F
:102B1000C8079091C9076DE770E040E050E020E001
:102B20000E94BD0CD0937F00C0937E0000937D0077
:102B30001092AB071092AA0788EE93E00E94CC1087
:102B400006C02FEF6F3F720711F010927D0084E6F0
:102B500090E00E94CC10A4CFCF92DF92EF92FF9230
:102B60000F931F93DF93CF9300D0CDB7DEB784E6EA
:102B7000898385E68A838E010F5F1F4F62E0C62E30
:102B8000D12CCC0EDD1EEE24EA94FE2C8091A207FF
:102B9000813009F044C080E00E9495038091C20713
:102BA0009091C30760E070E045E050E020E00E94B3
:102BB000640B8130A1F50E949E0390938100809365
:102BC000800021E08C32920758F48091BE079091EA
:102BD000BF07B80140E050E020E00E94BD0C1FC0DC
:102BE0008F5F9F4FE1F08091BE079091BF07B801C2
:102BF00040E050E020E00E94BD0C8091BA07909127
:102C0000BB07B60140E050E020E00E94BD0CF0920E
:102C10008100E092800088EE93E00E94CC1084E670
:102C200090E00E94CC10B2CF0F931F93CF93DF930D
:102C300002E010E0C1E0D0E08091CE079091CF0794
:102C40006CEA77E040E050E020E00E94640B809165
:102C5000AE079091AF07009719F585E062E040E07C
:102C60000E94B40186E062E041E00E94B40187E086
:102C700062E041E00E94B4018091AC079091AD0701
:102C80006AE070E00E94F517FC01E959FF4F81E00E
:102C900060810E943402D093AF07C093AE074EC04C
:102CA0008130910539F585E062E041E00E94B40190
:102CB00086E062E040E00E94B40187E062E041E02B
:102CC0000E94B4018091AC079091AD0764E670E07A
:102CD0000E94F5176AE070E00E94F517FB01EF58BB
:102CE000FF4F81E060810E9434021093AF07009390
:102CF000AE0724C0029711F585E062E041E00E9432
:102D0000B40186E062E041E00E94B40187E062E045
:102D100040E00E94B4018091AC079091AD0764E659
:102D200070E00E94F517FB01E959FF4F81E06081D7
:102D30000E9434021092AF071092AE078091A20752
:102D4000882321F41092AD071092AC0785E090E043
:102D50000E94CC1071CF8091A2078823B9F481E042
:102D600062E043EB57E00E9448028091B30788235A
:102D700069F48091BC079091BD0763EB77E040E078
:102D800050E020E00E94BD0C1092B30788EE93E063
:102D90000E94CC10E0CFAF92BF92CF92DF92EF9221
:102DA000FF920F9385E063E041E00E941B0181E008
:102DB0006FEF0E949B0187E062E041E00E941B01EF
:102DC00086E062E041E00E941B0185E062E041E0B4
:102DD0000E941B0180E063E041E00E941B0181E052
:102DE00062E040E00E941B0180E062E041E00E945E
:102DF0001B0183E062E041E00E941B0183E393E159
:102E00000E94A2030E94710380EE92E10E946B0077
:102E10000E94490084ED93E160E070E046E450E0F8
:102E200020E030E000E0EE24FF24CC24DD24AA24BE
:102E3000BB240E94B51184E196E160E070E044E6B5
:102E400050E020E030E004E00E94B5118CEA95E10A
:102E500060E070E046E450E020E030E002E00E94F4
:102E6000B51189E495E160E070E046E450E020E0CF
:102E700030E003E00E94B5118FE393E160E070E081
:102E800046E450E020E030E000E00E94B5118BE421
:102E900094E160E070E046E450E020E030E005E0DE
:102EA0000E94B5118BEA96E160E070E044E650E0E4
:102EB00020E030E001E00E94B51185E994E160E096
:102EC00070E044E650E020E030E003E00E94B511FD
:102ED00080ED94E160E070E044E650E020E030E016
:102EE00000E00E94B5110E94610D9093C30780938A
:102EF000C20781E061E00E948D0D9093C10780932D
:102F0000C00781E061E00E948D0D9093BF07809320
:102F1000BE0781E061E00E948D0D9093CD07809304
:102F2000CC0783E062E00E948D0D9093CF078093E1
:102F3000CE0781E061E00E948D0D9093BD078093E4
:102F4000BC0781E061E00E948D0D9093BB078093E8
:102F5000BA0781E061E00E948D0D9093CB078093CA
:102F6000CA0781E061E00E948D0D9093C9078093AC
:102F7000C80781E061E00E948D0D9093D107809396
:102F8000D00781E061E00E948D0D9093C707809388
:102F9000C60781E061E00E948D0D9093C507809384
:102FA000C4070E9413010E94B512FFCF629FD00197
:102FB000739FF001829FE00DF11D649FE00DF11DF4
:102FC000929FF00D839FF00D749FF00D659FF00DA3
:102FD0009927729FB00DE11DF91F639FB00DE11D90
:102FE000F91FBD01CF0111240895AA1BBB1B51E19C
:102FF00007C0AA1FBB1FA617B70710F0A61BB70B69
:10300000881F991F5A95A9F780959095BC01CD010D
:103010000895A1E21A2EAA1BBB1BFD010DC0AA1F19
:10302000BB1FEE1FFF1FA217B307E407F50720F031
:10303000A21BB30BE40BF50B661F771F881F991FAC
:103040001A9469F760957095809590959B01AC01F5
:10305000BD01CF010895FB01DC0102C001900D927A
:1030600041505040D8F70895DC0101C06D934150A4
:103070005040E0F70895FB01DC014150504048F01A
:1030800001900D920020C9F701C01D92415050409F
:08309000E0F70895F894FFCF6A
:1030980049444C4500FFFF3F065B4F666D7D077F47
:1030A8006FBF86DBCFE6EDFD87FFEFFFFF02FFFF77
:1030B800FFFF650101373431433835323039363353
:0630C8003D2F2A2D2B0014
:00000001FF
